:20C00000B012F8C0A2C3B00192B3B201FD23B2400002BC01B2D00300B001A2B2B001FD2768
:20C020009242020274019242040276019242060294010D123D4080061D83FE233D4103434A
:20C04000E13FC2435800F293F9100E240D123D4033821D83FE233D41C2435600D242F9109B
:20C060005700D242F8105600F2D080005700F240240053003041C2432100F2400C002600BA
:20C08000F2400C002200C2432400C2432300C2432C00C2432B00C2431D00E2431F00E24303
:20C0A0001E003041314000043F4001001F930220B01286C1B012CEC0B24094C10802B2408C
:20C0C00094C10A020C43B01200C0B01290C13F40FFFF3F930F243F4010023F9000020A2805
:20C0E0003F8000021F533E4000021E53CE43FFFF1F83FB231C433041B240805A2001B012CE
:20C1000076C0B01242C0B0121CC1B01258C1B0123EC1B0128CC1B0127EC13041A2C3B00153
:20C12000B24090C0B001B2400220B201F2401F004A00F24003004900A2D3B0013041B240A3
:20C14000E0006401B240E0006601B24000047201B240100260013041B240E0008401B240D9
:20C1600000049201B2401002800130413C402001B01276C13041BC40805A00003041B240F2
:16C18000805A20013041B0126CC1304132D230410343FF3F304173
:02FFFE00A4C09D
:00000001FF
