:20C0000031808000B0120CC10C413D407EC13E404000B01242C10C413C5040003D40BEC1BF
:20C020003E404000B01242C10E433E904000FC370F4E0F516F4F0F110F11824F74010F419A
:20C040003F5040000F5E6F4F0F110F11824F76010D123D4061001D83FE233D41003C1E5375
:20C060003E904000E137E43F314000043F4001001F930220B0126EC1B01292C0B2407CC17A
:20C080000002B2407CC102020C43B01200C0B01278C13F40FFFF3F930F243F4008023F90C5
:20C0A00000020A283F8000021F533E4000021E53CE43FFFF1F83FB231C433041C24358002C
:20C0C000F293FF100824C2435600D242FF105700D242FE105600F2D080005700F240240064
:20C0E00053003041C2432100F2400C002600F2400C002200C2432400C2432300F2F03F0020
:20C100002E00C2432C00C2432B003041B240805A2001B012E4C0B012BCC0B01228C1B01221
:20C1200074C1B01266C13041B240E0006401B240E0006601B24040007201B24010026001F6
:20C1400030410F4C0E9305241F53FF4DFFFF1E83FB2330413C402001B0125EC13041BC4072
:1EC16000805A00003041B240805A20013041B01254C1304132D230410343FF3F304166
:20C17E00808C99A5B1BCC6D1DAE2EAF0F5FAFDFEFFFEFDFAF5F0EAE2DAD1C7BCB1A5998C85
:20C19E008074675B4F44392F261E16100B060302010203060B10161E262F39444F5B67749E
:20C1BE00FFFEFDFAF5F0EAE2DAD1C7BCB1A5998C8074675B4F44392F261E16100B060302E2
:20C1DE00010203060B10161E262F39444F5B6774808C99A5B1BCC6D1DAE2EAF0F5FAFDFEC1
:02FFFE0068C0D9
:00000001FF
