:20C0000031808000B01210C10C413D4082C13E404000B01246C10C413C5040003D40C2C1AF
:20C020003E404000B01246C10E433E904000FC370F4E0F516F4F824F74010F413F50400007
:20C040000F5E6F4F824F76010D123D4080061D83FE233D4103431E533E904000E537E83F04
:20C06000C2435800F293F9100E240D123D4033821D83FE233D41C2435600D242F910570044
:20C08000D242F8105600F2D080005700F240240053003041314000043F4001001F930220B2
:20C0A000B01272C1B012BEC0B24080C10002B24080C102020C43B01200C0B0127CC13F4090
:20C0C000FFFF3F930F243F4008023F9000020A283F8000021F533E4000021E53CE43FFFF9E
:20C0E0001F83FB231C433041C2432100F2400C002600F2400C002200C2432400C243230075
:20C10000F2F03F002E00C2432C00C2432B003041B240805A2001B012E8C0B01260C0B01203
:20C120002CC1B01278C1B0126AC13041B240E0006401B240E0006601B24004017201B240ED
:20C140001002600130410F4C0E9305241F53FF4DFFFF1E83FB2330413C402001B01262C168
:20C160003041BC40805A00003041B240805A20013041B01258C1304132D230410343FF3F64
:02C1800030414C
:20C18200808C99A5B1BCC6D1DAE2EAF0F5FAFDFEFFFEFDFAF5F0EAE2DAD1C7BCB1A5998C81
:20C1A2008074675B4F44392F261E16100B060302010203060B10161E262F39444F5B67749A
:20C1C200FFFEFDFAF5F0EAE2DAD1C7BCB1A5998C8074675B4F44392F261E16100B060302DE
:20C1E200010203060B10161E262F39444F5B6774808C99A5B1BCC6D1DAE2EAF0F5FAFDFEBD
:02FFFE0094C0AD
:00000001FF
