:20C0000031808000B01200C10C413D4054C13E404000B01218C10C413C5040003D4094C149
:20C020003E404000B01218C10E433E904000FC370F4E0F51E24F21000F413F5040000F5E7A
:20C04000E24F29000D123D4065001D83FE233D41003C1E533E904000E737EA3F31400004CF
:20C060003F4001001F930220B01244C1B01286C0B24052C10002B24052C102020C43B0127C
:20C0800000C0B0124EC13F40FFFF3F930F243F4008023F9000020A283F8000021F533E4050
:20C0A00000021E53CE43FFFF1F83FB231C433041C2435800F293FF100824C2435600D242E2
:20C0C000FF105700D242FE105600F2D080005700F240240053003041C2432100F243220052
:20C0E000C2432400C2432300C2432900F2F03F002E00F2432A00C2432C00C2432B00304141
:20C10000B240805A2001B012D8C0B012B0C0B0124AC1B0123CC130410F4C0E9305241F5312
:20C12000FF4DFFFF1E83FB2330413C402001B01234C13041BC40805A00003041B240805AAD
:14C1400020013041B0122AC1304132D230410343FF3F3041D1
:20C15400808C99A5B1BCC6D1DAE2EAF0F5FAFDFEFFFEFDFAF5F0EAE2DAD1C7BCB1A5998CAF
:20C174008074675B4F44392F261E16100B060302010203060B10161E262F39444F5B6774C8
:20C19400FFFEFDFAF5F0EAE2DAD1C7BCB1A5998C8074675B4F44392F261E16100B0603020C
:20C1B400010203060B10161E262F39444F5B6774808C99A5B1BCC6D1DAE2EAF0F5FAFDFEEB
:02FFFE005CC0E5
:00000001FF
