:20C00000314000043F4001001F930220B01200C1B0122AC0B2400EC10002B2400EC10202A0
:20C020000C43B0127CC0B0120AC13F40FFFF3F930F243F4008023F9000020A283F80000257
:20C040001F533E4000021E53CE43FFFF1F83FB231C433041C2435800F293FF100824C243BC
:20C060005600D242FF105700D242FE105600F2D080005700F240240053003041B0129AC0A9
:20C0800092D3B001A2B2B001FD271F42B40112C30F100F11C24F2100F33FB240805A2001E6
:20C0A000B012B6C0B01254C0B012D0C0B01206C1B012F8C03041C2432100F2432200C2432A
:20C0C0002400C2432300C2432C00C2432B003041A2C3B001B24010C0B001F24019004A0024
:20C0E000A2D3B00130413C402001B012F0C03041BC40805A00003041B240805A2001304184
:10C10000B012E6C0304132D230410343FF3F3041EC
:02FFFE0000C041
:00000001FF
