:20C000000A120912081207120612051204123180AC00B012B2C7B14036578000B140C3BF68
:20C020008200B1400AD784003F40A339814F86001C4184000D4F3E4076D83F4084C3B012E6
:20C04000E2C40E433F40003FB012E2C4814C8800814D8A000F43814F9800814F9A00814F22
:20C060009C00814F9E00814FA000814FA2008143A4008143A600B14063148C00B1409D433D
:20C080008E0091418C00A80091418E00AA000C413D4028C83E404000B01204C80C413C5023
:20C0A00040003D4068C83E404000B01204C8A2C3B00192B3B201FD23B2400002BC01B2D0E6
:20C0C0000300B001A2B2B001FD271C4200023C80FF01B0129CC63E4005A33F40223FB0127B
:20C0E000E2C4074C084D1C4202023C80FF01B0129CC63E4005A33F40223FB012E2C4054CF1
:20C10000064D1C4204023C80FF01B0129CC63E4005A33F40223FB012E2C4094C0A4D0C471B
:20C120000D483E40DAAC3F402A3FB012E2C4074C084D0C450D460E490F4AB012B8C33E409F
:20C14000FA7E3F40AA3EB012E2C40E4C0F4D0C470D48B012B2C3074C084D0C490D4A0E455C
:20C160000F46B012B2C33E40EFC93F40133FB012E2C4094C0A4D1C419C001D419E003E40A5
:20C1800072F93F402241B012E2C4B012A4C5064C0F413F5040000F566C4F3C808000B01230
:20C1A0009CC63E40F3013F40013CB012E2C40E470F48B012E2C4044C054D0F410F566C4F61
:20C1C0003C808000B0129CC63E40F3013F40013CB012E2C40E490F4AB012E2C40E4C0F4D9B
:20C1E0000C440D45B012B2C3814C9000814D92000F410F566C4F3C808000B0129CC63E405B
:20C20000F3013F40013CB012E2C40E470F48B012E2C4074C084D0F413F5040000F566C4F0B
:20C220003C808000B0129CC63E40F3013F40013CB012E2C40E490F4AB012E2C40E4C0F4D3A
:20C240000C470D48B012B8C3094C0A4D1C4180001D4182001E4188001F418A00B012B8C382
:20C260000E490F4AB012E2C4074C084D1C4188001D418A001E4180001F418200B012B2C339
:20C280001E41A0001F41A200B012E2C40E4C0F4D0C470D48B012B8C31E41A4001F41A60091
:20C2A000B012B8C3074C084D1E418C001F418E00B012B8C3814C9400814D96001C418400DD
:20C2C0001D4186000E433F40003FB012E2C4054C064D1C4194001D4196001E41A8001F4113
:20C2E000AA00B012B8C30E4C0F4D0C450D46B012E2C41E4198001F419A00B012B8C3814C9A
:20C300009C00814D9E003E40560E3F40C940B0120CC60C9305380F43814F9C00814F9E000F
:20C320008149A000814AA20091419C00980091419E009A008147A4008148A60091419400D5
:20C34000A80091419600AA000C490D4A3E4072A23F40A243B012B8C33E40AE473F40C93F4A
:20C36000B012E2C4B01256C6824C74011C4190001D4192003E4072A23F40A243B012B8C324
:20C380003E40AE473F40C93FB012E2C4B01256C6824C94011C419C001D419E003E40C5D0F2
:20C3A0003F402243B012E2C4B01256C6824C96017E3E3B408000013C0B430A12091208125B
:20C3C000071221833FB0807F7B243DB0807F05200C4E0D4F8B100DEB733C0D5D084D4D10EE
:20C3E00038F000FF0DD80F5F084F4F1038F000FF0FD8094C0A4D3DF08000C14D00000BEAA3
:20C400000BEF3BC07FFF3AD080003FD080000A9F0220099E0A240B2C0D4F0F4A0A4D0C4E53
:20C420000E49094C81EB0000023C0B934F200C43084A881047488F10488F8F100E243890C2
:20C440001900342C12C34F100E100C103CB0001002243CD000201883F5230B930C24088C92
:20C46000097E4A7F0C484A9312300C5C09694A6A17832C24F83F095E4A6F09284A10091086
:20C480000C103CB0001002243CD0002017533CB00080072409634A6307633CB00060012041
:20C4A00019C3179313383790FF0013347AC080008710D1510000000007100AD70C490D4A87
:20C4C00021533741384139413A4130410D430C43F73F3D40FFFED161000000000D103C4374
:20C4E000EF3F0A12091208120712074F07ED0A4F0A5A8A104A4A0A934C247FD080000B4D3B
:20C500000B5B8B104B4B0B933F247DD080000B5A3B807F00084309430E9309241A430E1037
:20C520000228085C096D091008100A5AF82B0E431A430F100228085C096D091008100E101F
:20C540003EB0001002243ED000204A5AF223499302341B53033C0E6E086849693EB0008005
:20C560000724086349630B633EB00060012018C31B930F383B90FF000F3449598B1009DB9E
:20C58000075709100D490C483741384139413A4130410C430D43F83F3D40FFFE3C430757F6
:20C5A0000D10F23F0B4D0E4B3BF0807F2D240B5B8B107ED080003B807F0026303B900F00C8
:20C5C00011241D340E110C101E930124FB3F1B8303300C5C0E6EFB3F0D9302343EE31E5333
:20C5E0000C4E30418E108C104C4C0CDE3C9000800124053C0D9303343C40008030410D931E
:20C60000FB333C40FF7F30410C4330410B4D0BEF0A300D9312300D9F02241934163C0C9E38
:20C6200018241328143C3DB0807F04203FB0807F01200F240D9F0B34083C0F9D02240734A5
:20C64000043C0E9CEC270128023C3C4330411C4330410C4330410B4D0E4B3BF0807F1C24DB
:20C660000B5B8B107ED080003B807F0015303B90100010340E110C101E930124FB3F1B8364
:20C6800003300C5C0E6EFB3F0D9302343EE31E530C4E30413C4330410C4330410E4C0D4CB3
:20C6A0000D93162403343DE31D530F303B408F001B830D5DFD2B4C4D8C108D104D4D8B1059
:20C6C0000DDB0E5E0D100C1030413D4000C70C433041C2435800F293F9100E240D123D409F
:20C6E00033821D83FE233D41C2435600D242F9105700D242F8105600F2D080005700F2403A
:20C70000240053003041A2C3B001B240F020B001B2400220B201F24007004A00F2400300E9
:20C7200049000D123D400D271D83FE233D41003CA2D3B0013041314000043F4000001F9328
:20C740000220B0120000B01260C7B24026C80602B24026C808020C43B01200C0B01222C8BD
:20C760003F40FFFF3F930F243F400E023F9000020A283F8000021F533E4000021E53CE4370
:20C78000FFFF1F83FB231C433041C2432400C2432300C2432900F24052002E00F2F07F0079
:20C7A0002E00F24052002A00C2432C00C2432B003041B240805A2001B0128AC7B012D2C671
:20C7C000B01206C7B012D6C7B012F0C7B0121EC8B01216C83041B240E0008401B240E00010
:20C7E0008601B240FF039201B240100280013041B240E0006401B240FF037201B240100293
:20C80000600130410F4C0E9305241F53FF4DFFFF1E83FB233041B240805A2001304132D2D3
:08C8200030410343FF3F3041AA
:20C82800808C99A5B1BCC6D1DAE2EAF0F5FAFDFEFFFEFDFAF5F0EAE2DAD1C7BCB1A5998CD4
:20C848008074675B4F44392F261E16100B060302010203060B10161E262F39444F5B6774ED
:20C86800FFFEFDFAF5F0EAE2DAD1C7BCB1A5998C8074675B4F44392F261E16100B06030231
:20C88800010203060B10161E262F39444F5B6774808C99A5B1BCC6D1DAE2EAF0F5FAFDFE10
:02FFFE0036C704
:00000001FF
